{
  "_format": "hh-sol-artifact-1",
  "contractName": "VehicleCompliance",
  "sourceName": "contracts/VehicleCompliance.sol",
  "abi": [
    {
      "inputs": [
        {
          "internalType": "address",
          "name": "admin",
          "type": "address"
        }
      ],
      "stateMutability": "nonpayable",
      "type": "constructor"
    },
    {
      "inputs": [],
      "name": "AccessControlBadConfirmation",
      "type": "error"
    },
    {
      "inputs": [
        {
          "internalType": "address",
          "name": "account",
          "type": "address"
        },
        {
          "internalType": "bytes32",
          "name": "neededRole",
          "type": "bytes32"
        }
      ],
      "name": "AccessControlUnauthorizedAccount",
      "type": "error"
    },
    {
      "inputs": [],
      "name": "EnforcedPause",
      "type": "error"
    },
    {
      "inputs": [
        {
          "internalType": "string",
          "name": "eventId",
          "type": "string"
        }
      ],
      "name": "EventAlreadyExists",
      "type": "error"
    },
    {
      "inputs": [
        {
          "internalType": "string",
          "name": "eventId",
          "type": "string"
        }
      ],
      "name": "EventNotFound",
      "type": "error"
    },
    {
      "inputs": [],
      "name": "ExpectedPause",
      "type": "error"
    },
    {
      "inputs": [],
      "name": "InvalidEventId",
      "type": "error"
    },
    {
      "inputs": [],
      "name": "InvalidHash",
      "type": "error"
    },
    {
      "inputs": [],
      "name": "ReentrancyGuardReentrantCall",
      "type": "error"
    },
    {
      "inputs": [
        {
          "internalType": "enum VehicleCompliance.EventType",
          "name": "eventType",
          "type": "uint8"
        },
        {
          "internalType": "address",
          "name": "caller",
          "type": "address"
        }
      ],
      "name": "UnauthorizedEventType",
      "type": "error"
    },
    {
      "anonymous": false,
      "inputs": [
        {
          "indexed": true,
          "internalType": "string",
          "name": "eventId",
          "type": "string"
        },
        {
          "indexed": false,
          "internalType": "bytes32",
          "name": "eventHash",
          "type": "bytes32"
        },
        {
          "indexed": false,
          "internalType": "enum VehicleCompliance.EventType",
          "name": "eventType",
          "type": "uint8"
        },
        {
          "indexed": false,
          "internalType": "string",
          "name": "vehicleVIN",
          "type": "string"
        },
        {
          "indexed": false,
          "internalType": "string",
          "name": "metadataCID",
          "type": "string"
        },
        {
          "indexed": true,
          "internalType": "address",
          "name": "submitter",
          "type": "address"
        },
        {
          "indexed": false,
          "internalType": "uint256",
          "name": "timestamp",
          "type": "uint256"
        }
      ],
      "name": "EventAnchored",
      "type": "event"
    },
    {
      "anonymous": false,
      "inputs": [
        {
          "indexed": true,
          "internalType": "string",
          "name": "eventId",
          "type": "string"
        },
        {
          "indexed": false,
          "internalType": "bytes32",
          "name": "oldHash",
          "type": "bytes32"
        },
        {
          "indexed": false,
          "internalType": "bytes32",
          "name": "newHash",
          "type": "bytes32"
        },
        {
          "indexed": false,
          "internalType": "enum VehicleCompliance.EventType",
          "name": "eventType",
          "type": "uint8"
        },
        {
          "indexed": true,
          "internalType": "address",
          "name": "submitter",
          "type": "address"
        },
        {
          "indexed": false,
          "internalType": "uint256",
          "name": "timestamp",
          "type": "uint256"
        }
      ],
      "name": "EventUpdated",
      "type": "event"
    },
    {
      "anonymous": false,
      "inputs": [
        {
          "indexed": true,
          "internalType": "string",
          "name": "eventId",
          "type": "string"
        },
        {
          "indexed": false,
          "internalType": "bytes32",
          "name": "providedHash",
          "type": "bytes32"
        },
        {
          "indexed": false,
          "internalType": "bytes32",
          "name": "storedHash",
          "type": "bytes32"
        },
        {
          "indexed": false,
          "internalType": "enum VehicleCompliance.EventType",
          "name": "eventType",
          "type": "uint8"
        },
        {
          "indexed": false,
          "internalType": "bool",
          "name": "isValid",
          "type": "bool"
        },
        {
          "indexed": true,
          "internalType": "address",
          "name": "checker",
          "type": "address"
        },
        {
          "indexed": false,
          "internalType": "uint256",
          "name": "timestamp",
          "type": "uint256"
        }
      ],
      "name": "IntegrityVerified",
      "type": "event"
    },
    {
      "anonymous": false,
      "inputs": [
        {
          "indexed": false,
          "internalType": "address",
          "name": "account",
          "type": "address"
        }
      ],
      "name": "Paused",
      "type": "event"
    },
    {
      "anonymous": false,
      "inputs": [
        {
          "indexed": true,
          "internalType": "bytes32",
          "name": "role",
          "type": "bytes32"
        },
        {
          "indexed": true,
          "internalType": "bytes32",
          "name": "previousAdminRole",
          "type": "bytes32"
        },
        {
          "indexed": true,
          "internalType": "bytes32",
          "name": "newAdminRole",
          "type": "bytes32"
        }
      ],
      "name": "RoleAdminChanged",
      "type": "event"
    },
    {
      "anonymous": false,
      "inputs": [
        {
          "indexed": true,
          "internalType": "bytes32",
          "name": "role",
          "type": "bytes32"
        },
        {
          "indexed": true,
          "internalType": "address",
          "name": "account",
          "type": "address"
        },
        {
          "indexed": true,
          "internalType": "address",
          "name": "sender",
          "type": "address"
        }
      ],
      "name": "RoleGranted",
      "type": "event"
    },
    {
      "anonymous": false,
      "inputs": [
        {
          "indexed": true,
          "internalType": "bytes32",
          "name": "role",
          "type": "bytes32"
        },
        {
          "indexed": true,
          "internalType": "address",
          "name": "account",
          "type": "address"
        },
        {
          "indexed": true,
          "internalType": "address",
          "name": "sender",
          "type": "address"
        }
      ],
      "name": "RoleRevoked",
      "type": "event"
    },
    {
      "anonymous": false,
      "inputs": [
        {
          "indexed": false,
          "internalType": "address",
          "name": "account",
          "type": "address"
        }
      ],
      "name": "Unpaused",
      "type": "event"
    },
    {
      "inputs": [],
      "name": "AUDITOR_ROLE",
      "outputs": [
        {
          "internalType": "bytes32",
          "name": "",
          "type": "bytes32"
        }
      ],
      "stateMutability": "view",
      "type": "function"
    },
    {
      "inputs": [],
      "name": "COMPLIANCE_OFFICER_ROLE",
      "outputs": [
        {
          "internalType": "bytes32",
          "name": "",
          "type": "bytes32"
        }
      ],
      "stateMutability": "view",
      "type": "function"
    },
    {
      "inputs": [],
      "name": "DEFAULT_ADMIN_ROLE",
      "outputs": [
        {
          "internalType": "bytes32",
          "name": "",
          "type": "bytes32"
        }
      ],
      "stateMutability": "view",
      "type": "function"
    },
    {
      "inputs": [],
      "name": "ENGINEER_ROLE",
      "outputs": [
        {
          "internalType": "bytes32",
          "name": "",
          "type": "bytes32"
        }
      ],
      "stateMutability": "view",
      "type": "function"
    },
    {
      "inputs": [],
      "name": "REGULATOR_ROLE",
      "outputs": [
        {
          "internalType": "bytes32",
          "name": "",
          "type": "bytes32"
        }
      ],
      "stateMutability": "view",
      "type": "function"
    },
    {
      "inputs": [
        {
          "internalType": "string",
          "name": "eventId",
          "type": "string"
        },
        {
          "internalType": "bytes32",
          "name": "eventHash",
          "type": "bytes32"
        },
        {
          "internalType": "string",
          "name": "metadataCID",
          "type": "string"
        },
        {
          "internalType": "string",
          "name": "vehicleVIN",
          "type": "string"
        },
        {
          "internalType": "enum VehicleCompliance.EventType",
          "name": "eventType",
          "type": "uint8"
        }
      ],
      "name": "anchorEvent",
      "outputs": [],
      "stateMutability": "nonpayable",
      "type": "function"
    },
    {
      "inputs": [
        {
          "internalType": "enum VehicleCompliance.EventType",
          "name": "",
          "type": "uint8"
        }
      ],
      "name": "countByType",
      "outputs": [
        {
          "internalType": "uint256",
          "name": "",
          "type": "uint256"
        }
      ],
      "stateMutability": "view",
      "type": "function"
    },
    {
      "inputs": [
        {
          "internalType": "string",
          "name": "eventId",
          "type": "string"
        }
      ],
      "name": "eventExists",
      "outputs": [
        {
          "internalType": "bool",
          "name": "",
          "type": "bool"
        }
      ],
      "stateMutability": "view",
      "type": "function"
    },
    {
      "inputs": [],
      "name": "getComplianceSummary",
      "outputs": [
        {
          "internalType": "uint256",
          "name": "otaUpdates",
          "type": "uint256"
        },
        {
          "internalType": "uint256",
          "name": "aiAdasDecisions",
          "type": "uint256"
        },
        {
          "internalType": "uint256",
          "name": "supplyChainEvents",
          "type": "uint256"
        },
        {
          "internalType": "uint256",
          "name": "incidentRecords",
          "type": "uint256"
        },
        {
          "internalType": "uint256",
          "name": "softwareActivations",
          "type": "uint256"
        },
        {
          "internalType": "uint256",
          "name": "total",
          "type": "uint256"
        }
      ],
      "stateMutability": "view",
      "type": "function"
    },
    {
      "inputs": [
        {
          "internalType": "string",
          "name": "eventId",
          "type": "string"
        }
      ],
      "name": "getEvent",
      "outputs": [
        {
          "internalType": "bytes32",
          "name": "eventHash",
          "type": "bytes32"
        },
        {
          "internalType": "uint256",
          "name": "timestamp",
          "type": "uint256"
        },
        {
          "internalType": "address",
          "name": "submitter",
          "type": "address"
        },
        {
          "internalType": "string",
          "name": "metadataCID",
          "type": "string"
        },
        {
          "internalType": "string",
          "name": "vehicleVIN",
          "type": "string"
        },
        {
          "internalType": "enum VehicleCompliance.EventType",
          "name": "eventType",
          "type": "uint8"
        }
      ],
      "stateMutability": "view",
      "type": "function"
    },
    {
      "inputs": [
        {
          "internalType": "string",
          "name": "eventId",
          "type": "string"
        }
      ],
      "name": "getEventHistory",
      "outputs": [
        {
          "internalType": "bytes32[]",
          "name": "",
          "type": "bytes32[]"
        }
      ],
      "stateMutability": "view",
      "type": "function"
    },
    {
      "inputs": [
        {
          "internalType": "bytes32",
          "name": "role",
          "type": "bytes32"
        }
      ],
      "name": "getRoleAdmin",
      "outputs": [
        {
          "internalType": "bytes32",
          "name": "",
          "type": "bytes32"
        }
      ],
      "stateMutability": "view",
      "type": "function"
    },
    {
      "inputs": [
        {
          "internalType": "bytes32",
          "name": "role",
          "type": "bytes32"
        },
        {
          "internalType": "address",
          "name": "account",
          "type": "address"
        }
      ],
      "name": "grantRole",
      "outputs": [],
      "stateMutability": "nonpayable",
      "type": "function"
    },
    {
      "inputs": [
        {
          "internalType": "bytes32",
          "name": "role",
          "type": "bytes32"
        },
        {
          "internalType": "address",
          "name": "account",
          "type": "address"
        }
      ],
      "name": "hasRole",
      "outputs": [
        {
          "internalType": "bool",
          "name": "",
          "type": "bool"
        }
      ],
      "stateMutability": "view",
      "type": "function"
    },
    {
      "inputs": [],
      "name": "pause",
      "outputs": [],
      "stateMutability": "nonpayable",
      "type": "function"
    },
    {
      "inputs": [],
      "name": "paused",
      "outputs": [
        {
          "internalType": "bool",
          "name": "",
          "type": "bool"
        }
      ],
      "stateMutability": "view",
      "type": "function"
    },
    {
      "inputs": [
        {
          "internalType": "bytes32",
          "name": "role",
          "type": "bytes32"
        },
        {
          "internalType": "address",
          "name": "callerConfirmation",
          "type": "address"
        }
      ],
      "name": "renounceRole",
      "outputs": [],
      "stateMutability": "nonpayable",
      "type": "function"
    },
    {
      "inputs": [
        {
          "internalType": "bytes32",
          "name": "role",
          "type": "bytes32"
        },
        {
          "internalType": "address",
          "name": "account",
          "type": "address"
        }
      ],
      "name": "revokeRole",
      "outputs": [],
      "stateMutability": "nonpayable",
      "type": "function"
    },
    {
      "inputs": [
        {
          "internalType": "bytes4",
          "name": "interfaceId",
          "type": "bytes4"
        }
      ],
      "name": "supportsInterface",
      "outputs": [
        {
          "internalType": "bool",
          "name": "",
          "type": "bool"
        }
      ],
      "stateMutability": "view",
      "type": "function"
    },
    {
      "inputs": [],
      "name": "totalRecords",
      "outputs": [
        {
          "internalType": "uint256",
          "name": "",
          "type": "uint256"
        }
      ],
      "stateMutability": "view",
      "type": "function"
    },
    {
      "inputs": [],
      "name": "unpause",
      "outputs": [],
      "stateMutability": "nonpayable",
      "type": "function"
    },
    {
      "inputs": [
        {
          "internalType": "string",
          "name": "eventId",
          "type": "string"
        },
        {
          "internalType": "bytes32",
          "name": "newHash",
          "type": "bytes32"
        },
        {
          "internalType": "string",
          "name": "metadataCID",
          "type": "string"
        }
      ],
      "name": "updateEvent",
      "outputs": [],
      "stateMutability": "nonpayable",
      "type": "function"
    },
    {
      "inputs": [
        {
          "internalType": "string",
          "name": "eventId",
          "type": "string"
        },
        {
          "internalType": "bytes32",
          "name": "hashToVerify",
          "type": "bytes32"
        }
      ],
      "name": "verifyIntegrity",
      "outputs": [
        {
          "internalType": "bool",
          "name": "isValid",
          "type": "bool"
        }
      ],
      "stateMutability": "nonpayable",
      "type": "function"
    }
  ],
  "bytecode": "0x60806040523480156200001157600080fd5b5060405162001dbf38038062001dbf8339810160408190526200003491620001d0565b60017f9b779b17422d0df92223018b32b4d1fa46e071723d6817e2486d003becc55f00556200006560008262000121565b50620000927f378cd7fc818c4683ce7288fd33f128c035e865eb2e0e8eba3b2d9c323e07387b8262000121565b50620000bf7fb6f0283bd1ed00c6aa7e988a7516070240f3610a34d167391359b648eb37cefc8262000121565b50620000ec7f59a1c48e5837ad7a7f3dcedcbe129bf3249ec4fbf651fd4f5e2600ead39fe2f58262000121565b50620001197f20b5f7ac978e5d6199de06401411960dfa81d2f762655f6206bdc61d46fc19e68262000121565b505062000202565b6000828152602081815260408083206001600160a01b038516845290915281205460ff16620001c6576000838152602081815260408083206001600160a01b03861684529091529020805460ff191660011790556200017d3390565b6001600160a01b0316826001600160a01b0316847f2f8788117e7eff1d82e926ec794901d17c78024a50270940304540a733656f0d60405160405180910390a4506001620001ca565b5060005b92915050565b600060208284031215620001e357600080fd5b81516001600160a01b0381168114620001fb57600080fd5b9392505050565b611bad80620002126000396000f3fe608060405234801561001057600080fd5b506004361061014d5760003560e01c80636e1d616e116100c3578063a217fddf1161007c578063a217fddf14610321578063b3eadb2d14610329578063d547741f14610349578063e19020631461035c578063ed92fa8414610381578063fd5186a01461039457600080fd5b80636e1d616e146102995780638456cb59146102c057806391d14854146102c85780639b2a88dd146102db5780639d826e71146102ee578063a15c94611461030e57600080fd5b8063248a9ca311610115578063248a9ca3146102145780632f2ff15d1461023757806336568abe1461024c5780633f4ba83a1461025f578063424b6720146102675780635c975abb1461028e57600080fd5b806301ffc9a714610152578063125f89741461017a578063144bf58914610191578063150b783c146101b8578063198596b5146101ed575b600080fd5b610165610160366004611418565b6103a7565b60405190151581526020015b60405180910390f35b61018360065481565b604051908152602001610171565b6101837f20b5f7ac978e5d6199de06401411960dfa81d2f762655f6206bdc61d46fc19e681565b6101c06103de565b604080519687526020870195909552938501929092526060840152608083015260a082015260c001610171565b6101837fb6f0283bd1ed00c6aa7e988a7516070240f3610a34d167391359b648eb37cefc81565b610183610222366004611449565b60009081526020819052604090206001015490565b61024a610245366004611462565b610552565b005b61024a61025a366004611462565b61057d565b61024a6105b5565b6101837f378cd7fc818c4683ce7288fd33f128c035e865eb2e0e8eba3b2d9c323e07387b81565b60015460ff16610165565b6101837f59a1c48e5837ad7a7f3dcedcbe129bf3249ec4fbf651fd4f5e2600ead39fe2f581565b61024a6105cb565b6101656102d6366004611462565b6105de565b6101656102e93660046114e7565b610607565b6103016102fc366004611533565b6107c7565b6040516101719190611575565b61024a61031c3660046115cd565b610889565b610183600081565b610183610337366004611681565b60046020526000908152604090205481565b61024a610357366004611462565b610c02565b61036f61036a366004611533565b610c27565b6040516101719695949392919061171a565b61024a61038f366004611774565b610e73565b6101656103a2366004611533565b6110bc565b60006001600160e01b03198216637965db0b60e01b14806103d857506301ffc9a760e01b6001600160e01b03198316145b92915050565b6000806000806000806104117f59a1c48e5837ad7a7f3dcedcbe129bf3249ec4fbf651fd4f5e2600ead39fe2f5336105de565b15801561044557506104437f20b5f7ac978e5d6199de06401411960dfa81d2f762655f6206bdc61d46fc19e6336105de565b155b801561045957506104576000336105de565b155b15610485576000336040516316c5a13560e01b815260040161047c9291906117ee565b60405180910390fd5b5050600460208190527f17ef568e3e12ab5b9c7254a8d58478811de00f9e6eb34345acd53bf8fd09d3ec547fabd6e7cb50984ff9c2f3e18a2660c3353dadf4e3291deeb275dae2cd1e44fe05547f91da3fd0782e51c6b3986e9e672fd566868e71f3dbc2d6c2cd6fbb3e361af2a7547f2e174c10e159ea99b867ce3205125c24a42d128804e4070ed6fcc8cc98166aa0546000949094527f1a1e6821cde7d0159c0d293177871e09677b4e42307c7db3ba94f8648a5a050f54600654939992985090965092945091925090565b60008281526020819052604090206001015461056d816110f4565b61057783836110fe565b50505050565b6001600160a01b03811633146105a65760405163334bd91960e11b815260040160405180910390fd5b6105b08282611190565b505050565b60006105c0816110f4565b6105c86111fb565b50565b60006105d6816110f4565b6105c861124d565b6000918252602082815260408084206001600160a01b0393909316845291905290205460ff1690565b60006106337fb6f0283bd1ed00c6aa7e988a7516070240f3610a34d167391359b648eb37cefc336105de565b15801561066757506106657f20b5f7ac978e5d6199de06401411960dfa81d2f762655f6206bdc61d46fc19e6336105de565b155b801561067b57506106796000336105de565b155b156106c35760028484604051610692929190611814565b908152604051908190036020018120600501546316c5a13560e01b825261047c9160ff9091169033906004016117ee565b600284846040516106d5929190611814565b9081526040519081900360200190206005015460ff6101009091041661071257838360405163772c688960e01b815260040161047c92919061184d565b600060028585604051610726929190611814565b90815260405190819003602001812054915060009060029061074b9088908890611814565b90815260405190819003602001812060050154838614945060ff16915033906107779088908890611814565b60405180910390207ff205c35bf86cfbeeddf1e9ae462bce9a22b940f20105ed6495a7294a0df4a66686858588426040516107b6959493929190611869565b60405180910390a350509392505050565b6060600283836040516107db929190611814565b9081526040519081900360200190206005015460ff6101009091041661081857828260405163772c688960e01b815260040161047c92919061184d565b6003838360405161082a929190611814565b908152604080519182900360209081018320805480830285018301909352828452919083018282801561087c57602002820191906000526020600020905b815481526020019060010190808311610868575b5050505050905092915050565b610891611288565b6108996112ae565b60008790036108bb57604051630c93477d60e41b815260040160405180910390fd5b856108d8576040516257c03760e51b815260040160405180910390fd5b600288886040516108ea929190611814565b9081526040519081900360200190206005015460ff6101009091041615610928578787604051633b91a0a360e01b815260040161047c92919061184d565b610931816112ca565b6040518060e00160405280878152602001428152602001336001600160a01b0316815260200186868080601f016020809104026020016040519081016040528093929190818152602001838380828437600092019190915250505090825250604080516020601f8701819004810282018101909252858152918101919086908690819084018382808284376000920191909152505050908252506020018260048111156109e0576109e06116e2565b815260016020909101526040516002906109fd908b908b90611814565b9081526040805160209281900383019020835181559183015160018301558201516002820180546001600160a01b0319166001600160a01b0390921691909117905560608201516003820190610a539082611937565b5060808201516004820190610a689082611937565b5060a082015160058201805460ff19166001836004811115610a8c57610a8c6116e2565b021790555060c09190910151600590910180549115156101000261ff0019909216919091179055604051600390610ac6908a908a90611814565b9081526040516020918190038201902080546001808201835560009283529282200188905560058054928301815590527f036b6384b5eca791c62761152d0c79bb0604c104a5fb6f4eb0703f3154bb3db001610b23888a836119f7565b5060046000826004811115610b3a57610b3a6116e2565b6004811115610b4b57610b4b6116e2565b81526020019081526020016000206000815480929190610b6a90611ab7565b909155505060068054906000610b7f83611ab7565b90915550506040513390610b96908a908a90611814565b60405180910390207f4d905ab79940f4633d78e658021dbecd091dad5c976f057931b311cb1edcc328888487878b8b42604051610bd99796959493929190611ade565b60405180910390a3610bf86001600080516020611b5883398151915255565b5050505050505050565b600082815260208190526040902060010154610c1d816110f4565b6105778383611190565b6000806000606080600060028888604051610c43929190611814565b9081526040519081900360200190206005015460ff61010090910416610c8057878760405163772c688960e01b815260040161047c92919061184d565b600060028989604051610c94929190611814565b90815260408051918290036020908101832060e0840183528054845260018101549184019190915260028101546001600160a01b031691830191909152600381018054606084019190610ce6906118ad565b80601f0160208091040260200160405190810160405280929190818152602001828054610d12906118ad565b8015610d5f5780601f10610d3457610100808354040283529160200191610d5f565b820191906000526020600020905b815481529060010190602001808311610d4257829003601f168201915b50505050508152602001600482018054610d78906118ad565b80601f0160208091040260200160405190810160405280929190818152602001828054610da4906118ad565b8015610df15780601f10610dc657610100808354040283529160200191610df1565b820191906000526020600020905b815481529060010190602001808311610dd457829003601f168201915b5050509183525050600582015460209091019060ff166004811115610e1857610e186116e2565b6004811115610e2957610e296116e2565b815260059190910154610100900460ff16151560209182015281519082015160408301516060840151608085015160a090950151939e929d50909b50995091975095509350505050565b610e7b611288565b610e836112ae565b60028585604051610e95929190611814565b9081526040519081900360200190206005015460ff61010090910416610ed257848460405163772c688960e01b815260040161047c92919061184d565b82610eef576040516257c03760e51b815260040160405180910390fd5b600060028686604051610f03929190611814565b9081526040519081900360200190206005015460ff169050610f24816112ca565b600060028787604051610f38929190611814565b9081526040519081900360200181205491508590600290610f5c908a908a90611814565b908152604051908190036020018120919091554290600290610f81908a908a90611814565b9081526020016040518091039020600101819055503360028888604051610fa9929190611814565b908152602001604051809103902060020160006101000a8154816001600160a01b0302191690836001600160a01b03160217905550838360028989604051610ff2929190611814565b908152602001604051809103902060030191826110109291906119f7565b5060038787604051611023929190611814565b9081526040519081900360209081018220805460018101825560009182529190200186905533906110579089908990611814565b60405180910390207f02dbadaa5751df1785d96f82487d72fe4553945903246aecac1ef0aab4af1a25838886426040516110949493929190611b2d565b60405180910390a350506110b56001600080516020611b5883398151915255565b5050505050565b6000600283836040516110d0929190611814565b9081526040519081900360200190206005015460ff61010090910416905092915050565b6105c88133611388565b600061110a83836105de565b611188576000838152602081815260408083206001600160a01b03861684529091529020805460ff191660011790556111403390565b6001600160a01b0316826001600160a01b0316847f2f8788117e7eff1d82e926ec794901d17c78024a50270940304540a733656f0d60405160405180910390a45060016103d8565b5060006103d8565b600061119c83836105de565b15611188576000838152602081815260408083206001600160a01b0386168085529252808320805460ff1916905551339286917ff6391f5c32d9c69d2a47ea670b442974b53935d1edc7fd64eb21e047a839171b9190a45060016103d8565b6112036113c5565b6001805460ff191690557f5db9ee0a495bf2e6ff9c91a7834c1ba4fdd244a5e8aa4e537bd38aeae4b073aa335b6040516001600160a01b03909116815260200160405180910390a1565b611255611288565b6001805460ff1916811790557f62e78cea01bee320cd4e420270b5ea74000d11b0c9f74754ebdbfc544b05a25833611230565b60015460ff16156112ac5760405163d93c066560e01b815260040160405180910390fd5b565b6112b66113e8565b6002600080516020611b5883398151915255565b6112d56000336105de565b156112dd5750565b60018160048111156112f1576112f16116e2565b148061130e5750600381600481111561130c5761130c6116e2565b145b1561135e5761133d7fb6f0283bd1ed00c6aa7e988a7516070240f3610a34d167391359b648eb37cefc336105de565b6105c85780336040516316c5a13560e01b815260040161047c9291906117ee565b61133d7f378cd7fc818c4683ce7288fd33f128c035e865eb2e0e8eba3b2d9c323e07387b336105de565b61139282826105de565b6113c15760405163e2517d3f60e01b81526001600160a01b03821660048201526024810183905260440161047c565b5050565b60015460ff166112ac57604051638dfc202b60e01b815260040160405180910390fd5b600080516020611b58833981519152546002036112ac57604051633ee5aeb560e01b815260040160405180910390fd5b60006020828403121561142a57600080fd5b81356001600160e01b03198116811461144257600080fd5b9392505050565b60006020828403121561145b57600080fd5b5035919050565b6000806040838503121561147557600080fd5b8235915060208301356001600160a01b038116811461149357600080fd5b809150509250929050565b60008083601f8401126114b057600080fd5b50813567ffffffffffffffff8111156114c857600080fd5b6020830191508360208285010111156114e057600080fd5b9250929050565b6000806000604084860312156114fc57600080fd5b833567ffffffffffffffff81111561151357600080fd5b61151f8682870161149e565b909790965060209590950135949350505050565b6000806020838503121561154657600080fd5b823567ffffffffffffffff81111561155d57600080fd5b6115698582860161149e565b90969095509350505050565b6020808252825182820181905260009190848201906040850190845b818110156115ad57835183529284019291840191600101611591565b50909695505050505050565b8035600581106115c857600080fd5b919050565b60008060008060008060008060a0898b0312156115e957600080fd5b883567ffffffffffffffff8082111561160157600080fd5b61160d8c838d0161149e565b909a50985060208b0135975060408b013591508082111561162d57600080fd5b6116398c838d0161149e565b909750955060608b013591508082111561165257600080fd5b5061165f8b828c0161149e565b9094509250611672905060808a016115b9565b90509295985092959890939650565b60006020828403121561169357600080fd5b611442826115b9565b6000815180845260005b818110156116c2576020818501810151868301820152016116a6565b506000602082860101526020601f19601f83011685010191505092915050565b634e487b7160e01b600052602160045260246000fd5b6005811061171657634e487b7160e01b600052602160045260246000fd5b9052565b86815285602082015260018060a01b038516604082015260c06060820152600061174760c083018661169c565b8281036080840152611759818661169c565b91505061176960a08301846116f8565b979650505050505050565b60008060008060006060868803121561178c57600080fd5b853567ffffffffffffffff808211156117a457600080fd5b6117b089838a0161149e565b90975095506020880135945060408801359150808211156117d057600080fd5b506117dd8882890161149e565b969995985093965092949392505050565b604081016117fc82856116f8565b6001600160a01b039290921660209190910152919050565b8183823760009101908152919050565b81835281816020850137506000828201602090810191909152601f909101601f19169091010190565b602081526000611861602083018486611824565b949350505050565b8581526020810185905260a0810161188460408301866116f8565b9215156060820152608001529392505050565b634e487b7160e01b600052604160045260246000fd5b600181811c908216806118c157607f821691505b6020821081036118e157634e487b7160e01b600052602260045260246000fd5b50919050565b601f8211156105b0576000816000526020600020601f850160051c810160208610156119105750805b601f850160051c820191505b8181101561192f5782815560010161191c565b505050505050565b815167ffffffffffffffff81111561195157611951611897565b6119658161195f84546118ad565b846118e7565b602080601f83116001811461199a57600084156119825750858301515b600019600386901b1c1916600185901b17855561192f565b600085815260208120601f198616915b828110156119c9578886015182559484019460019091019084016119aa565b50858210156119e75787850151600019600388901b60f8161c191681555b5050505050600190811b01905550565b67ffffffffffffffff831115611a0f57611a0f611897565b611a2383611a1d83546118ad565b836118e7565b6000601f841160018114611a575760008515611a3f5750838201355b600019600387901b1c1916600186901b1783556110b5565b600083815260209020601f19861690835b82811015611a885786850135825560209485019460019092019101611a68565b5086821015611aa55760001960f88860031b161c19848701351681555b505060018560011b0183555050505050565b600060018201611ad757634e487b7160e01b600052601160045260246000fd5b5060010190565b878152611aee60208201886116f8565b60a060408201526000611b0560a083018789611824565b8281036060840152611b18818688611824565b91505082608083015298975050505050505050565b8481526020810184905260808101611b4860408301856116f8565b8260608301529594505050505056fe9b779b17422d0df92223018b32b4d1fa46e071723d6817e2486d003becc55f00a26469706673582212202f9964fd0691e309d36f559bca33bd4123824db92403762fc13d58db51c3153c64736f6c63430008180033",
  "linkReferences": {},
  "deployedLinkReferences": {}
}